{"abi":[{"type":"constructor","inputs":[{"name":"_owner","type":"address","internalType":"address"},{"name":"_sequencerFeed","type":"address","internalType":"address"},{"name":"_btcUsdPairId","type":"bytes32","internalType":"bytes32"},{"name":"_btcUsdFeed","type":"address","internalType":"address"},{"name":"_ethUsdPairId","type":"bytes32","internalType":"bytes32"},{"name":"_ethUsdFeed","type":"address","internalType":"address"}],"stateMutability":"nonpayable"},{"type":"function","name":"MAX_STALENESS","inputs":[],"outputs":[{"name":"","type":"uint256","internalType":"uint256"}],"stateMutability":"view"},{"type":"function","name":"OPTION_DOWN","inputs":[],"outputs":[{"name":"","type":"uint256","internalType":"uint256"}],"stateMutability":"view"},{"type":"function","name":"OPTION_UP","inputs":[],"outputs":[{"name":"","type":"uint256","internalType":"uint256"}],"stateMutability":"view"},{"type":"function","name":"SEQUENCER_GRACE_PERIOD","inputs":[],"outputs":[{"name":"","type":"uint256","internalType":"uint256"}],"stateMutability":"view"},{"type":"function","name":"authorizedCallers","inputs":[{"name":"","type":"address","internalType":"address"}],"outputs":[{"name":"","type":"bool","internalType":"bool"}],"stateMutability":"view"},{"type":"function","name":"configureFeed","inputs":[{"name":"pairId","type":"bytes32","internalType":"bytes32"},{"name":"feed","type":"address","internalType":"address"}],"outputs":[],"stateMutability":"nonpayable"},{"type":"function","name":"getPrice","inputs":[{"name":"pairId","type":"bytes32","internalType":"bytes32"}],"outputs":[{"name":"","type":"int256","internalType":"int256"}],"stateMutability":"view"},{"type":"function","name":"markets","inputs":[{"name":"","type":"address","internalType":"address"}],"outputs":[{"name":"pairId","type":"bytes32","internalType":"bytes32"},{"name":"strikePrice","type":"int256","internalType":"int256"},{"name":"resolved","type":"bool","internalType":"bool"}],"stateMutability":"view"},{"type":"function","name":"owner","inputs":[],"outputs":[{"name":"","type":"address","internalType":"address"}],"stateMutability":"view"},{"type":"function","name":"priceFeeds","inputs":[{"name":"","type":"bytes32","internalType":"bytes32"}],"outputs":[{"name":"","type":"address","internalType":"address"}],"stateMutability":"view"},{"type":"function","name":"registerMarket","inputs":[{"name":"pool","type":"address","internalType":"address"},{"name":"pairId","type":"bytes32","internalType":"bytes32"},{"name":"strikePrice","type":"int256","internalType":"int256"}],"outputs":[],"stateMutability":"nonpayable"},{"type":"function","name":"renounceOwnership","inputs":[],"outputs":[],"stateMutability":"nonpayable"},{"type":"function","name":"resolve","inputs":[{"name":"pool","type":"address","internalType":"address"}],"outputs":[],"stateMutability":"nonpayable"},{"type":"function","name":"sequencerFeed","inputs":[],"outputs":[{"name":"","type":"address","internalType":"contract AggregatorV3Interface"}],"stateMutability":"view"},{"type":"function","name":"setAuthorizedCaller","inputs":[{"name":"caller","type":"address","internalType":"address"},{"name":"authorized","type":"bool","internalType":"bool"}],"outputs":[],"stateMutability":"nonpayable"},{"type":"function","name":"transferOwnership","inputs":[{"name":"newOwner","type":"address","internalType":"address"}],"outputs":[],"stateMutability":"nonpayable"},{"type":"event","name":"AuthorizedCallerSet","inputs":[{"name":"caller","type":"address","indexed":true,"internalType":"address"},{"name":"authorized","type":"bool","indexed":false,"internalType":"bool"}],"anonymous":false},{"type":"event","name":"FeedConfigured","inputs":[{"name":"pairId","type":"bytes32","indexed":true,"internalType":"bytes32"},{"name":"feed","type":"address","indexed":false,"internalType":"address"}],"anonymous":false},{"type":"event","name":"MarketRegistered","inputs":[{"name":"pool","type":"address","indexed":true,"internalType":"address"},{"name":"pairId","type":"bytes32","indexed":true,"internalType":"bytes32"},{"name":"strikePrice","type":"int256","indexed":false,"internalType":"int256"}],"anonymous":false},{"type":"event","name":"MarketResolved","inputs":[{"name":"pool","type":"address","indexed":true,"internalType":"address"},{"name":"winningOption","type":"uint256","indexed":false,"internalType":"uint256"},{"name":"settlementPrice","type":"int256","indexed":false,"internalType":"int256"},{"name":"strikePrice","type":"int256","indexed":false,"internalType":"int256"}],"anonymous":false},{"type":"event","name":"OwnershipTransferred","inputs":[{"name":"previousOwner","type":"address","indexed":true,"internalType":"address"},{"name":"newOwner","type":"address","indexed":true,"internalType":"address"}],"anonymous":false},{"type":"error","name":"AlreadyResolved","inputs":[]},{"type":"error","name":"FeedNotConfigured","inputs":[]},{"type":"error","name":"MarketNotExpired","inputs":[]},{"type":"error","name":"MarketNotRegistered","inputs":[]},{"type":"error","name":"OwnableInvalidOwner","inputs":[{"name":"owner","type":"address","internalType":"address"}]},{"type":"error","name":"OwnableUnauthorizedAccount","inputs":[{"name":"account","type":"address","internalType":"address"}]},{"type":"error","name":"SequencerDown","inputs":[]},{"type":"error","name":"SequencerGracePeriod","inputs":[]},{"type":"error","name":"StalePrice","inputs":[]}],"bytecode":{"object":"0x60a03461018a57601f610bf138819003918201601f19168301916001600160401b0383118484101761018e5780849260c09460405283398101031261018a57610047816101a2565b610053602083016101a2565b604083015190610065606085016101a2565b9061007760a0608087015196016101a2565b936001600160a01b03168015610177575f516020610bd15f395f51905f52926020925f54928060018060a01b03198516175f556040519360018060a01b03167f8be0079c531659141344cd1fd0a4f28419497f9722a3daafe3b4186f6b6457e05f80a36001600160a01b039081166080525f868152600185526040902080546001600160a01b0319169290911691821790558152a26001600160a01b03168061013a575b604051610a1a90816101b782396080518181816106ab01526108980152f35b5f8281526001602090815260409182902080546001600160a01b0319168417905590519182525f516020610bd15f395f51905f5291a25f8061011b565b631e4fbdf760e01b5f525f60045260245ffd5b5f80fd5b634e487b7160e01b5f52604160045260245ffd5b51906001600160a01b038216820361018a5756fe60806040526004361015610011575f80fd5b5f5f3560e01c806327c0c7731461070857806331d98b3f146106da5780633b521cb614610696578063454bbd2914610610578063536fff6c146105d357806355ea6c47146103f2578063715018a6146103985780638da5cb5b146103715780638e8f294b1461031b578063b3dc0202146101c2578063b3ecf7be146101a6578063c6c3f71e14610173578063caca95a41461016e578063d307b6db1461016e578063e61ee230146101525763f2fde38b146100ca575f80fd5b3461014f57602036600319011261014f576100e3610788565b6100eb6107f0565b6001600160a01b0316801561013b5781546001600160a01b03198116821783556001600160a01b03167f8be0079c531659141344cd1fd0a4f28419497f9722a3daafe3b4186f6b6457e08380a380f35b631e4fbdf760e01b82526004829052602482fd5b80fd5b503461014f578060031936011261014f57602060405160018152f35b61079e565b503461014f57602036600319011261014f57602090600435815260018252604060018060a01b0391205416604051908152f35b503461014f578060031936011261014f57602060405160028152f35b503461014f57606036600319011261014f576101dc610788565b60243590604435338452600360205260ff6040852054168015610308575b156102d457828452600160205260408420546001600160a01b0316156102c5576040516060810181811067ffffffffffffffff8211176102b157916102a76020927f7a2b3a0777034c66500776a1ca9ab33b47d58edf1cd7d61e0b69d7672932247a9460405286815260028482019684885260408301908a825260018060a01b031697888b5282875260408b209351845551600184015551151591019060ff801983541691151516179055565b604051908152a380f35b634e487b7160e01b86526041600452602486fd5b633a2a64d160e11b8452600484fd5b60405162461bcd60e51b815260206004820152600c60248201526b1d5b985d5d1a1bdc9a5e995960a21b6044820152606490fd5b5083546001600160a01b031633146101fa565b503461014f57602036600319011261014f576060906040906001600160a01b03610343610788565b16815260026020522080549060ff600260018301549201541690604051928352602083015215156040820152f35b503461014f578060031936011261014f57546040516001600160a01b039091168152602090f35b503461014f578060031936011261014f576103b16107f0565b80546001600160a01b03198116825581906001600160a01b03167f8be0079c531659141344cd1fd0a4f28419497f9722a3daafe3b4186f6b6457e08280a380f35b503461055d57602036600319011261055d576001600160a01b03610414610788565b16805f52600260205260405f20805480156105c457600282019060ff8254166105b5576040516318cbe5db60e11b8152602081600481885afa9081156105aa575f91610578575b50421061056957610475600191610470610883565b61093d565b920191825481135f14610561576001905b843b1561055d576040516366805de560e01b81525f81600481838a5af1610548575b50843b1561054457604051639e2f04bf60e01b815260048101839052868082602481838b5af1918261052b575b50506104df578580f35b7fd3fdb4af0afec2a74180544020db52334fca8c38854e8b5a2727c1b7a35ae47b93606093600160ff19825416179055549060405192835260208301526040820152a25f808080808580f35b81610535916107ba565b61054057865f6104d5565b8680fd5b8580fd5b6105559196505f906107ba565b5f945f6104a8565b5f80fd5b600290610486565b63671eb0c560e01b5f5260045ffd5b90506020813d6020116105a2575b81610593602093836107ba565b8101031261055d57515f61045b565b3d9150610586565b6040513d5f823e3d90fd5b6336ab81e160e11b5f5260045ffd5b631d5a9fa160e01b5f5260045ffd5b3461055d57602036600319011261055d576001600160a01b036105f4610788565b165f526003602052602060ff60405f2054166040519015158152f35b3461055d57604036600319011261055d57610629610788565b602435908115159081830361055d577f1eff62a53441c7d0125c22f2a9a324e206b34efa41e19469d7efb9bb703d21a39161068d6020926106686107f0565b60018060a01b031694855f526003845260405f209060ff801983541691151516179055565b604051908152a2005b3461055d575f36600319011261055d576040517f00000000000000000000000000000000000000000000000000000000000000006001600160a01b03168152602090f35b3461055d57602036600319011261055d576106f3610883565b602061070060043561093d565b604051908152f35b3461055d57604036600319011261055d576004356024356001600160a01b0381169081900361055d5760207f2f2abe54368524e8f054985f3340fceb4bbe2bf8c945e37cfacff5abc05c6ab09161075d6107f0565b835f526001825260405f20816bffffffffffffffffffffffff60a01b825416179055604051908152a2005b600435906001600160a01b038216820361055d57565b3461055d575f36600319011261055d576020604051610e108152f35b90601f8019910116810190811067ffffffffffffffff8211176107dc57604052565b634e487b7160e01b5f52604160045260245ffd5b5f546001600160a01b0316330361080357565b63118cdaa760e01b5f523360045260245ffd5b519069ffffffffffffffffffff8216820361055d57565b908160a091031261055d5761084181610816565b9160208201519160408101519161085f608060608401519301610816565b90565b9190820391821161086f57565b634e487b7160e01b5f52601160045260245ffd5b604051633fabe5a360e21b815260a0816004817f00000000000000000000000000000000000000000000000000000000000000006001600160a01b03165afa9081156105aa575f905f92610908575b506108fa576108e4610e109142610862565b106108eb57565b632d7512d760e21b5f5260045ffd5b62032b3d60e81b5f5260045ffd5b905061092c915060a03d60a011610936575b61092481836107ba565b81019061082d565b509250505f6108d2565b503d61091a565b5f908152600160205260409020546001600160a01b031680156109d55760a060049160405192838092633fabe5a360e21b82525afa80156105aa575f915f916109a6575b5061098f610e109142610862565b116109975790565b630cd5fa0760e11b5f5260045ffd5b61098f9250610e1091506109c89060a03d60a0116109365761092481836107ba565b5094925050929150610981565b633a2a64d160e11b5f5260045ffdfea26469706673582212201c981e7b342c41648ae3a3fe9d5ce710a2b520c681d76c44c75458bc623a371864736f6c634300081d00332f2abe54368524e8f054985f3340fceb4bbe2bf8c945e37cfacff5abc05c6ab0","linkReferences":{}},"methodIdentifiers":{"MAX_STALENESS()":"caca95a4","OPTION_DOWN()":"b3ecf7be","OPTION_UP()":"e61ee230","SEQUENCER_GRACE_PERIOD()":"d307b6db","authorizedCallers(address)":"536fff6c","configureFeed(bytes32,address)":"27c0c773","getPrice(bytes32)":"31d98b3f","markets(address)":"8e8f294b","owner()":"8da5cb5b","priceFeeds(bytes32)":"c6c3f71e","registerMarket(address,bytes32,int256)":"b3dc0202","renounceOwnership()":"715018a6","resolve(address)":"55ea6c47","sequencerFeed()":"3b521cb6","setAuthorizedCaller(address,bool)":"454bbd29","transferOwnership(address)":"f2fde38b"},"id":29}