{"abi":[{"type":"constructor","inputs":[{"name":"_owner","type":"address","internalType":"address"},{"name":"_resolver","type":"address","internalType":"address"},{"name":"_factory","type":"address","internalType":"address"},{"name":"_baseToken","type":"address","internalType":"address"},{"name":"_seedLiquidity","type":"uint256","internalType":"uint256"}],"stateMutability":"nonpayable"},{"type":"function","name":"BTCUSD","inputs":[],"outputs":[{"name":"","type":"bytes32","internalType":"bytes32"}],"stateMutability":"view"},{"type":"function","name":"ETHUSD","inputs":[],"outputs":[{"name":"","type":"bytes32","internalType":"bytes32"}],"stateMutability":"view"},{"type":"function","name":"NUM_TIMEFRAMES","inputs":[],"outputs":[{"name":"","type":"uint256","internalType":"uint256"}],"stateMutability":"view"},{"type":"function","name":"_createMarketExternal","inputs":[{"name":"tfIdx","type":"uint256","internalType":"uint256"},{"name":"pairId","type":"bytes32","internalType":"bytes32"}],"outputs":[],"stateMutability":"nonpayable"},{"type":"function","name":"activeMarketCount","inputs":[],"outputs":[{"name":"","type":"uint256","internalType":"uint256"}],"stateMutability":"view"},{"type":"function","name":"activeMarkets","inputs":[{"name":"index","type":"uint256","internalType":"uint256"}],"outputs":[{"name":"pool","type":"address","internalType":"address"},{"name":"endTime","type":"uint256","internalType":"uint256"},{"name":"pairId","type":"bytes32","internalType":"bytes32"}],"stateMutability":"view"},{"type":"function","name":"addPair","inputs":[{"name":"pairId","type":"bytes32","internalType":"bytes32"}],"outputs":[],"stateMutability":"nonpayable"},{"type":"function","name":"baseToken","inputs":[],"outputs":[{"name":"","type":"address","internalType":"contract IERC20"}],"stateMutability":"view"},{"type":"function","name":"checkUpkeep","inputs":[{"name":"","type":"bytes","internalType":"bytes"}],"outputs":[{"name":"upkeepNeeded","type":"bool","internalType":"bool"},{"name":"performData","type":"bytes","internalType":"bytes"}],"stateMutability":"view"},{"type":"function","name":"claimFromPool","inputs":[{"name":"pool","type":"address","internalType":"address"}],"outputs":[],"stateMutability":"nonpayable"},{"type":"function","name":"cyclingPairAt","inputs":[{"name":"index","type":"uint256","internalType":"uint256"}],"outputs":[{"name":"","type":"bytes32","internalType":"bytes32"}],"stateMutability":"view"},{"type":"function","name":"cyclingPairCount","inputs":[],"outputs":[{"name":"","type":"uint256","internalType":"uint256"}],"stateMutability":"view"},{"type":"function","name":"factory","inputs":[],"outputs":[{"name":"","type":"address","internalType":"address"}],"stateMutability":"view"},{"type":"function","name":"isCyclingPair","inputs":[{"name":"","type":"bytes32","internalType":"bytes32"}],"outputs":[{"name":"","type":"bool","internalType":"bool"}],"stateMutability":"view"},{"type":"function","name":"owner","inputs":[],"outputs":[{"name":"","type":"address","internalType":"address"}],"stateMutability":"view"},{"type":"function","name":"pairTfLastCreated","inputs":[{"name":"","type":"bytes32","internalType":"bytes32"},{"name":"","type":"uint256","internalType":"uint256"}],"outputs":[{"name":"","type":"uint256","internalType":"uint256"}],"stateMutability":"view"},{"type":"function","name":"performUpkeep","inputs":[{"name":"performData","type":"bytes","internalType":"bytes"}],"outputs":[],"stateMutability":"nonpayable"},{"type":"function","name":"pruneResolved","inputs":[],"outputs":[],"stateMutability":"nonpayable"},{"type":"function","name":"renounceOwnership","inputs":[],"outputs":[],"stateMutability":"nonpayable"},{"type":"function","name":"resolver","inputs":[],"outputs":[{"name":"","type":"address","internalType":"contract ChainlinkResolver"}],"stateMutability":"view"},{"type":"function","name":"seedLiquidity","inputs":[],"outputs":[{"name":"","type":"uint256","internalType":"uint256"}],"stateMutability":"view"},{"type":"function","name":"setFactory","inputs":[{"name":"_factory","type":"address","internalType":"address"}],"outputs":[],"stateMutability":"nonpayable"},{"type":"function","name":"setResolver","inputs":[{"name":"_resolver","type":"address","internalType":"address"}],"outputs":[],"stateMutability":"nonpayable"},{"type":"function","name":"setSeedLiquidity","inputs":[{"name":"amount","type":"uint256","internalType":"uint256"}],"outputs":[],"stateMutability":"nonpayable"},{"type":"function","name":"supportedPairs","inputs":[{"name":"","type":"bytes32","internalType":"bytes32"}],"outputs":[{"name":"","type":"bool","internalType":"bool"}],"stateMutability":"view"},{"type":"function","name":"timeframes","inputs":[{"name":"","type":"uint256","internalType":"uint256"}],"outputs":[{"name":"duration","type":"uint256","internalType":"uint256"},{"name":"disputeDuration","type":"uint256","internalType":"uint256"},{"name":"active","type":"bool","internalType":"bool"}],"stateMutability":"view"},{"type":"function","name":"toggleTimeframe","inputs":[{"name":"index","type":"uint256","internalType":"uint256"},{"name":"active","type":"bool","internalType":"bool"}],"outputs":[],"stateMutability":"nonpayable"},{"type":"function","name":"transferOwnership","inputs":[{"name":"newOwner","type":"address","internalType":"address"}],"outputs":[],"stateMutability":"nonpayable"},{"type":"function","name":"withdrawFunds","inputs":[{"name":"token","type":"address","internalType":"address"},{"name":"amount","type":"uint256","internalType":"uint256"}],"outputs":[],"stateMutability":"nonpayable"},{"type":"event","name":"FundsWithdrawn","inputs":[{"name":"token","type":"address","indexed":true,"internalType":"address"},{"name":"amount","type":"uint256","indexed":false,"internalType":"uint256"}],"anonymous":false},{"type":"event","name":"MarketCreated","inputs":[{"name":"pool","type":"address","indexed":true,"internalType":"address"},{"name":"pairId","type":"bytes32","indexed":true,"internalType":"bytes32"},{"name":"duration","type":"uint256","indexed":false,"internalType":"uint256"},{"name":"strikePrice","type":"int256","indexed":false,"internalType":"int256"}],"anonymous":false},{"type":"event","name":"MarketCreationFailed","inputs":[{"name":"pairId","type":"bytes32","indexed":true,"internalType":"bytes32"},{"name":"timeframe","type":"uint256","indexed":true,"internalType":"uint256"},{"name":"reason","type":"bytes","indexed":false,"internalType":"bytes"}],"anonymous":false},{"type":"event","name":"OwnershipTransferred","inputs":[{"name":"previousOwner","type":"address","indexed":true,"internalType":"address"},{"name":"newOwner","type":"address","indexed":true,"internalType":"address"}],"anonymous":false},{"type":"event","name":"ResolutionFailed","inputs":[{"name":"pool","type":"address","indexed":true,"internalType":"address"},{"name":"reason","type":"bytes","indexed":false,"internalType":"bytes"}],"anonymous":false},{"type":"event","name":"SeedLiquidityUpdated","inputs":[{"name":"amount","type":"uint256","indexed":false,"internalType":"uint256"}],"anonymous":false},{"type":"event","name":"TimeframeToggled","inputs":[{"name":"index","type":"uint256","indexed":true,"internalType":"uint256"},{"name":"active","type":"bool","indexed":false,"internalType":"bool"}],"anonymous":false},{"type":"error","name":"InvalidTimeframeIndex","inputs":[]},{"type":"error","name":"NothingToDo","inputs":[]},{"type":"error","name":"OwnableInvalidOwner","inputs":[{"name":"owner","type":"address","internalType":"address"}]},{"type":"error","name":"OwnableUnauthorizedAccount","inputs":[{"name":"account","type":"address","internalType":"address"}]},{"type":"error","name":"SafeERC20FailedOperation","inputs":[{"name":"token","type":"address","internalType":"address"}]}],"bytecode":{"object":"0x6080604052346103d657604051601f611d5238819003918201601f19168301916001600160401b038311848410176103af5780849260a0946040528339810103126103d65761004d816103f9565b9061005a602082016103f9565b610066604083016103f9565b906080610075606085016103f9565b930151936001600160a01b031680156103c3575f80546001600160a01b03198116831782556001600160a01b0316907f8be0079c531659141344cd1fd0a4f28419497f9722a3daafe3b4186f6b6457e09080a3600180546001600160a01b039283166001600160a01b03199182161790915560028054938316938216841790556003805494909216931683179055600492909255906101126103da565b61012c8152602081016102588152604082019160018352516005555160065551151560ff80196007541691161760075561014a6103da565b6103848152602081016107088152604082019160018352516008555160095551151560ff8019600a5416911617600a556101826103da565b610e10808252611c20602080840182905260016040909401849052600b92909255600c55600d805460ff1990811684179091555f516020611d325f395f51905f525f527f425e9c3cae60611ba53c0a004e7f4bc2b5fb751757d056b6fb55a1b29a0814d5805482168417905560119091527ff5dcd7164343be48253a2bf14f13a4e89525377201a74ac16f99881e4d73255180549091169091179055601054680100000000000000008110156103af57600181018060105581101561039b575f516020611d325f395f51905f527f1b6847dc741a1b0cd08d278845f9d819d87b734759afb55fe2de5cb82a9ae6729091015560405163095ea7b360e01b5f90815260048390525f1960245260209060448180875af19060015f511482161561038c575b604052156102bd575b604051611924908161040e8239f35b60405163095ea7b360e01b5f52816004525f60245260205f60448180875af19060015f5114821615610374575b60405215610361576040519063095ea7b360e01b5f526004525f1960245260205f60448180865af19060015f5114821615610340575b6040521561032e57806102ae565b635274afe760e01b5f5260045260245ffd5b90600181151661035857823b15153d15161690610320565b503d5f823e3d90fd5b50635274afe760e01b5f5260045260245ffd5b90600181151661035857833b15153d151616906102ea565b90833b15153d151616906102a5565b634e487b7160e01b5f52603260045260245ffd5b634e487b7160e01b5f52604160045260245ffd5b631e4fbdf760e01b5f525f60045260245ffd5b5f80fd5b60405190606082016001600160401b038111838210176103af57604052565b51906001600160a01b03821682036103d65756fe60806040526004361015610011575f80fd5b5f5f3560e01c8061b5ed146114e257806304f3bcec146114ba5780630de6e321146114455780630ecd287014611417578063264f0167146113fb5780633adfe6d0146113b35780634585e33b146110ea5780634a8aae6b14610b8b5780634e543b2614610b465780635099b78d14610af45780635bb47808146109895780636e04ff0d146105d5578063715018a61461057b57806373db08441461054057806379ef0ccc146105225780637a6c5fc4146104f35780637ff38963146104a557806387158978146104875780638c52d705146104635780638da5cb5b1461043c578063b03233d31461041e578063c107532914610357578063c45a01551461032e578063c55dae6314610305578063d8feddb3146102d1578063da23d13b14610249578063df37c8d11461021a578063f2fde38b146101945763fc2650d814610157575f80fd5b3461019157806003193601126101915760206040517fee62665949c883f9e0f6f002eac32e00bd59dfe6c34e92a91c37d6a8322d64898152f35b80fd5b5034610191576020366003190112610191576101ae61158f565b6101b661176d565b6001600160a01b031680156102065781546001600160a01b03198116821783556001600160a01b03167f8be0079c531659141344cd1fd0a4f28419497f9722a3daafe3b4186f6b6457e08380a380f35b631e4fbdf760e01b82526004829052602482fd5b50346101915760203660031901126101915760ff60406020926004358152601184522054166040519015158152f35b5034610191576040366003190112610191576004356024358015158091036102cd5761027361176d565b60038210156102be5760207f442ce5cbf9ea107bc6ec8525862416f2bf6645372837fb5ce260dfc2ccdf6973916007600385020160ff1981541660ff8316179055604051908152a280f35b63f052039160e01b8352600483fd5b8280fd5b5034610191576040366003190112610191576040602091600435815260128352818120602435825283522054604051908152f35b50346101915780600319360112610191576003546040516001600160a01b039091168152602090f35b50346101915780600319360112610191576002546040516001600160a01b039091168152602090f35b50346101915760403660031901126101915761037161158f565b6024359061037d61176d565b60405163a9059cbb60e01b84523360045260248390526001600160a01b03919091169160208460448180875af160018551148116156103ff575b82604052156103eb57816020917feaff4b37086828766ad3268786972c0cd24259d4c87a80f9d3963a3c3d999b0d9352a280f35b635274afe760e01b84526004839052602484fd5b600181151661041557833b15153d1516166103b7565b823d86823e3d90fd5b50346101915780600319360112610191576020600e54604051908152f35b5034610191578060031936011261019157546040516001600160a01b039091168152602090f35b503461019157806003193601126101915761047c61176d565b610484611793565b80f35b50346101915780600319360112610191576020601054604051908152f35b5034610191576020366003190112610191577fec0da846d8d4974030adaa3b258cb6f59008017bcc8795d57e2707669f4f796b60206004356104e561176d565b80600455604051908152a180f35b50346101915760203660031901126101915760ff60406020926004358152600f84522054166040519015158152f35b50346101915780600319360112610191576020600454604051908152f35b503461019157806003193601126101915760206040517f0b43555ace6b39aae1b894097d0a9fc17f504c62fea598fa206cc6f5088e6e458152f35b503461019157806003193601126101915761059461176d565b80546001600160a01b03198116825581906001600160a01b03167f8be0079c531659141344cd1fd0a4f28419497f9722a3daafe3b4186f6b6457e08280a380f35b5034610191576105e4366115a5565b5050600e5460609180805b838110610957575080601054815b8181106108a25750831594851595610898575b8561063a575b8686610636604051928392151583526040602084015260408301906115f6565b0390f35b9095509092919061064a836116a0565b926106586040519485611662565b808452610667601f19916116a0565b01366020850137610677826116a0565b916106856040519384611662565b808352610694601f19916116a0565b01845b81811061086957505083845b828110610825575050508283955b80871061073d5750506106d793945060405193849260406020850152606084019061173a565b601f19838203016040840152602080835192838152019201935b81811061071857505061070d925003601f198101835282611662565b905f80808080610616565b84518051845260209081015181850152909401938593506040909201916001016106f1565b909293959461074b8661161a565b90549060031b1c94858852600f60205260ff6040892054161561081657875b60038110156107ff576001906003810260ff60078201541690816107cf575b50610795575b0161076a565b6107c9604051976107a589611646565b8989528260208a01526107b78161170b565b986107c2828a6116b8565b52876116b8565b5061078f565b6107f69150898c52601260205260408c20838d5260205260408c205490600501549061172d565b4210155f610789565b50956001919794929395505b0195949293916106b1565b9560019197949293955061080b565b80600161083881939a969897999a611684565b50015442101561084f575b019695939492966106a3565b8061086361085c8561170b565b948a6116b8565b52610843565b60209060409894969597985161087e81611646565b868152868382015282828901015201969593949296610697565b8315159550610610565b946108af8695949561161a565b90549060031b1c93848452600f60205260ff6040852054161561094b57835b600381101561093c576003810260ff600782015416908161090c575b506108f8575b6001016108ce565b9561090460019161170b565b9690506108f0565b6109339150878752601260205260408720838852602052604087205490600501549061172d565b4210155f6108ea565b50949350946001905b016105fd565b94935094600190610945565b600161096282611684565b500154421015610975575b6001016105ef565b9161098160019161170b565b92905061096d565b5034610191576020366003190112610191576109a361158f565b6109ab61176d565b600280546001600160a01b0319166001600160a01b0392831690811790915560035460405163095ea7b360e01b855260048390525f1960245292169160208460448180875af1906001855114821615610ae5575b60405215610a0b578280f35b60405163095ea7b360e01b8452816004528360245260208460448180875af1906001855114821615610ac4575b60405215610ab05760405163095ea7b360e01b84526004919091525f1960245260208360448180865af1906001845114821615610a8f575b60405215610a7d57808280f35b635274afe760e01b8252600452602490fd5b906001811516610aa757823b15153d15161690610a70565b503d83823e3d90fd5b635274afe760e01b83526004829052602483fd5b906001811516610adc57833b15153d15161690610a38565b503d84823e3d90fd5b90833b15153d151616906109ff565b5034610191576020366003190112610191576004356003811015610b4257600390606092500280600501549060ff600760068301549201541690604051928352602083015215156040820152f35b5080fd5b503461019157602036600319011261019157610b6061158f565b610b6861176d565b60018060a01b03166bffffffffffffffffffffffff60a01b600154161760015580f35b503461019157604036600319011261019157602435903033036110b757600360043510156110a857818152600f60205260ff6040822054161561106e576001546040516331d98b3f60e01b815260048181018590526001600160a01b039290921693913560030290602081602481885afa90811561106357849161102d575b50610c1982600501544261172d565b9160405192610c29608085611662565b6003845260208401606036823784511561101957611324905283516001101561100557611388604085015283516002101561100557606460608501526001420196874211610ff15760068301546004549160018060a01b036003541690604051926101a084019b8c67ffffffffffffffff868210911117610fdd578b9c60409c9b9c528a85528a60208601523060408601528a606086015260808501528560a0850152600360c085015260e08401526020978894604051610cea8782611662565b8b815261010086015261012085015261014084015261016083015261018082015260018060a01b036002541660405180988180946332db0b8f60e11b825286600483015280511515602483015260208101511515604483015260018060a01b03604082015116606483015260018060a01b036060820151166084830152608081015160a483015260a081015160c483015260c081015160e483015260e0810151610104830152610dd4610db06101008301516101a06101248601526101c48501906115f6565b6101208301516101448501526101408301518482036023190161016486015261173a565b6101608201516001600160a01b03908116610184850152610180909201519091166101a483015203925af1948515610fd2578795610f93575b506001546001600160a01b0316948790863b15610b42578180916064604051809481936359ee010160e11b835260018060a01b03169b8c60048401528d60248401528a60448401525af18015610f8857610f6f575b5050604051906060820182811067ffffffffffffffff821117610f5b576040528582528482019081526040820190878252600e54600160401b811015610f4757806001610eb29201600e55611684565b939093610f33575183546001600160a01b0319166001600160a01b039190911617835551600183015551600290910155848652601283526040808720600435885284528087204290556005909101548151908152928301919091527f220c544eb0ba5582a9dac1e8969425c5b70d1e940762412803b74484ea4d13a891a380f35b634e487b7160e01b8a5260048a905260248afd5b634e487b7160e01b8a52604160045260248afd5b634e487b7160e01b89526041600452602489fd5b81610f7991611662565b610f8457865f610e62565b8680fd5b6040513d84823e3d90fd5b9094508381813d8311610fcb575b610fab8183611662565b81010312610f8457516001600160a01b0381168103610f8457935f610e0d565b503d610fa1565b6040513d89823e3d90fd5b634e487b7160e01b8c52604160045260248cfd5b634e487b7160e01b87526011600452602487fd5b634e487b7160e01b86526032600452602486fd5b634e487b7160e01b87526032600452602487fd5b90506020813d60201161105b575b8161104860209383611662565b8101031261105757515f610c0a565b8380fd5b3d915061103b565b6040513d86823e3d90fd5b60405162461bcd60e51b81526020600482015260126024820152711c185a5c881b9bdd081cdd5c1c1bdc9d195960721b6044820152606490fd5b63f052039160e01b8152600490fd5b60405162461bcd60e51b815260206004820152600b60248201526a37b7363c9031bcb1b632b960a91b6044820152606490fd5b5034610191576110f9366115a5565b8101906040818303126102cd57803567ffffffffffffffff81116110575781019082601f8301121561105757813591611131836116a0565b9261113f6040519485611662565b80845260208085019160051b83010191858311610f8457602001905b8282106113a35750505060208101359067ffffffffffffffff821161139f570182601f8201121561105757803590611192826116a0565b936111a06040519586611662565b82855260208086019360061b83010191818311610f8457602001925b82841061136e575050505082805b825181101561129b576111e66111e082856116b8565b51611684565b50546001546001600160a01b039182169116803b15611057578380916024604051809781936355ea6c4760e01b83528760048401525af19384611282575b5050600192155f1461127c577fd7564038aac603bc317873e188ea1e029f3b479663212caf6189ac0a577b5c9a61127061125c6116cc565b6040519182916020835260208301906115f6565b0390a25b0183906111ca565b50611274565b8161128c91611662565b61129757855f611224565b8580fd5b5082815b8151811015611365576112b281836116b8565b519060208201918251928151303b15610f845760405194634a8aae6b60e01b86526004860152602485015285808560448183305af19485611350575b5050600193155f14611349577f2028f44e1ad603b7279c02b0dc5115c16e00258366c3142778b41a7481fa61af61133f6113266116cc565b93519251936040519182916020835260208301906115f6565b0390a35b0161129f565b5050611343565b8161135a91611662565b6112975785876112ee565b82610484611793565b604084830312610f84576020604091825161138881611646565b8635815282870135838201528152019301926111bc565b8480fd5b813581526020918201910161115b565b50346101915760203660031901126101915760606113d2600435611684565b5060018060a01b0381541690600260018201549101549060405192835260208301526040820152f35b5034610191578060031936011261019157602060405160038152f35b503461019157602036600319011261019157602061143660043561161a565b90549060031b1c604051908152f35b50346114b65760203660031901126114b65761145f61158f565b61146761176d565b6001600160a01b0316803b156114b6575f8091600460405180948193634e71d92d60e01b83525af180156114ab5761149d575080f35b6114a991505f90611662565b005b6040513d5f823e3d90fd5b5f80fd5b346114b6575f3660031901126114b6576001546040516001600160a01b039091168152602090f35b346114b65760203660031901126114b6576004356114fe61176d565b805f52600f60205260405f20600160ff19825416179055805f52601160205260ff60405f2054161561152c57005b805f52601160205260405f20600160ff19825416179055601054600160401b81101561157b57806001611562920160105561161a565b819291549060031b91821b915f19901b19161790555f80f35b634e487b7160e01b5f52604160045260245ffd5b600435906001600160a01b03821682036114b657565b9060206003198301126114b65760043567ffffffffffffffff81116114b657826023820112156114b65780600401359267ffffffffffffffff84116114b657602484830101116114b6576024019190565b805180835260209291819084018484015e5f828201840152601f01601f1916010190565b6010548110156116325760105f5260205f2001905f90565b634e487b7160e01b5f52603260045260245ffd5b6040810190811067ffffffffffffffff82111761157b57604052565b90601f8019910116810190811067ffffffffffffffff82111761157b57604052565b600e5481101561163257600e5f52600360205f20910201905f90565b67ffffffffffffffff811161157b5760051b60200190565b80518210156116325760209160051b010190565b3d15611706573d9067ffffffffffffffff821161157b57604051916116fb601f8201601f191660200184611662565b82523d5f602084013e565b606090565b5f1981146117195760010190565b634e487b7160e01b5f52601160045260245ffd5b9190820180921161171957565b90602080835192838152019201905f5b8181106117575750505090565b825184526020938401939092019160010161174a565b5f546001600160a01b0316330361178057565b63118cdaa760e01b5f523360045260245ffd5b5f905b600e54808310156118e957600460206117ae85611684565b5054604051630b8cddb960e31b815292839182906001600160a01b03165afa9081156114ab575f916118af575b501561189e575f198101908111611719576117f590611684565b506117ff83611684565b91909161184057808203611867575b5050600e548015611853575f190161182581611684565b611840576002815f8093558260018201550155600e55611796565b634e487b7160e01b5f525f60045260245ffd5b634e487b7160e01b5f52603160045260245ffd5b805482546001600160a01b0319166001600160a01b0391909116178255600180820154908301556002908101549101555f8061180e565b50906118a99061170b565b90611796565b90506020813d82116118e1575b816118c960209383611662565b810103126114b6575180151581036114b6575f6117db565b3d91506118bc565b50905056fea26469706673582212206cc88f51b292e59f7d77dbfd27a579e2e935933a2f7b6d61d9fac4417d7b010864736f6c634300081d0033ee62665949c883f9e0f6f002eac32e00bd59dfe6c34e92a91c37d6a8322d6489","linkReferences":{}},"methodIdentifiers":{"BTCUSD()":"fc2650d8","ETHUSD()":"73db0844","NUM_TIMEFRAMES()":"264f0167","_createMarketExternal(uint256,bytes32)":"4a8aae6b","activeMarketCount()":"b03233d3","activeMarkets(uint256)":"3adfe6d0","addPair(bytes32)":"0000b5ed","baseToken()":"c55dae63","checkUpkeep(bytes)":"6e04ff0d","claimFromPool(address)":"0de6e321","cyclingPairAt(uint256)":"0ecd2870","cyclingPairCount()":"87158978","factory()":"c45a0155","isCyclingPair(bytes32)":"df37c8d1","owner()":"8da5cb5b","pairTfLastCreated(bytes32,uint256)":"d8feddb3","performUpkeep(bytes)":"4585e33b","pruneResolved()":"8c52d705","renounceOwnership()":"715018a6","resolver()":"04f3bcec","seedLiquidity()":"79ef0ccc","setFactory(address)":"5bb47808","setResolver(address)":"4e543b26","setSeedLiquidity(uint256)":"7ff38963","supportedPairs(bytes32)":"7a6c5fc4","timeframes(uint256)":"5099b78d","toggleTimeframe(uint256,bool)":"da23d13b","transferOwnership(address)":"f2fde38b","withdrawFunds(address,uint256)":"c1075329"},"id":34}